{
  "_format": "hh-sol-artifact-1",
  "contractName": "NFTTwittaProfileImage",
  "sourceName": "contracts/NFTTwittaProfileImage.sol",
  "abi": [
    {
      "inputs": [],
      "stateMutability": "nonpayable",
      "type": "constructor"
    },
    {
      "anonymous": false,
      "inputs": [
        {
          "indexed": true,
          "internalType": "address",
          "name": "owner",
          "type": "address"
        },
        {
          "indexed": true,
          "internalType": "address",
          "name": "approved",
          "type": "address"
        },
        {
          "indexed": true,
          "internalType": "uint256",
          "name": "tokenId",
          "type": "uint256"
        }
      ],
      "name": "Approval",
      "type": "event"
    },
    {
      "anonymous": false,
      "inputs": [
        {
          "indexed": true,
          "internalType": "address",
          "name": "owner",
          "type": "address"
        },
        {
          "indexed": true,
          "internalType": "address",
          "name": "operator",
          "type": "address"
        },
        {
          "indexed": false,
          "internalType": "bool",
          "name": "approved",
          "type": "bool"
        }
      ],
      "name": "ApprovalForAll",
      "type": "event"
    },
    {
      "anonymous": false,
      "inputs": [
        {
          "indexed": true,
          "internalType": "address",
          "name": "previousOwner",
          "type": "address"
        },
        {
          "indexed": true,
          "internalType": "address",
          "name": "newOwner",
          "type": "address"
        }
      ],
      "name": "OwnershipTransferred",
      "type": "event"
    },
    {
      "anonymous": false,
      "inputs": [
        {
          "indexed": true,
          "internalType": "address",
          "name": "from",
          "type": "address"
        },
        {
          "indexed": true,
          "internalType": "address",
          "name": "to",
          "type": "address"
        },
        {
          "indexed": true,
          "internalType": "uint256",
          "name": "tokenId",
          "type": "uint256"
        }
      ],
      "name": "Transfer",
      "type": "event"
    },
    {
      "inputs": [
        {
          "internalType": "address",
          "name": "to",
          "type": "address"
        },
        {
          "internalType": "uint256",
          "name": "tokenId",
          "type": "uint256"
        }
      ],
      "name": "approve",
      "outputs": [],
      "stateMutability": "nonpayable",
      "type": "function"
    },
    {
      "inputs": [
        {
          "internalType": "address",
          "name": "owner",
          "type": "address"
        }
      ],
      "name": "balanceOf",
      "outputs": [
        {
          "internalType": "uint256",
          "name": "",
          "type": "uint256"
        }
      ],
      "stateMutability": "view",
      "type": "function"
    },
    {
      "inputs": [],
      "name": "getAllTokens",
      "outputs": [
        {
          "components": [
            {
              "internalType": "uint256",
              "name": "id",
              "type": "uint256"
            },
            {
              "internalType": "string",
              "name": "uri",
              "type": "string"
            },
            {
              "internalType": "string",
              "name": "space",
              "type": "string"
            }
          ],
          "internalType": "struct NFTTwittaProfileImage.RenderToken[]",
          "name": "",
          "type": "tuple[]"
        }
      ],
      "stateMutability": "view",
      "type": "function"
    },
    {
      "inputs": [
        {
          "internalType": "uint256",
          "name": "tokenId",
          "type": "uint256"
        }
      ],
      "name": "getApproved",
      "outputs": [
        {
          "internalType": "address",
          "name": "",
          "type": "address"
        }
      ],
      "stateMutability": "view",
      "type": "function"
    },
    {
      "inputs": [
        {
          "internalType": "address",
          "name": "owner",
          "type": "address"
        },
        {
          "internalType": "address",
          "name": "operator",
          "type": "address"
        }
      ],
      "name": "isApprovedForAll",
      "outputs": [
        {
          "internalType": "bool",
          "name": "",
          "type": "bool"
        }
      ],
      "stateMutability": "view",
      "type": "function"
    },
    {
      "inputs": [
        {
          "internalType": "address",
          "name": "recipient",
          "type": "address"
        },
        {
          "internalType": "string",
          "name": "_uri",
          "type": "string"
        }
      ],
      "name": "mint",
      "outputs": [
        {
          "internalType": "uint256",
          "name": "",
          "type": "uint256"
        }
      ],
      "stateMutability": "nonpayable",
      "type": "function"
    },
    {
      "inputs": [],
      "name": "name",
      "outputs": [
        {
          "internalType": "string",
          "name": "",
          "type": "string"
        }
      ],
      "stateMutability": "view",
      "type": "function"
    },
    {
      "inputs": [],
      "name": "owner",
      "outputs": [
        {
          "internalType": "address",
          "name": "",
          "type": "address"
        }
      ],
      "stateMutability": "view",
      "type": "function"
    },
    {
      "inputs": [
        {
          "internalType": "uint256",
          "name": "tokenId",
          "type": "uint256"
        }
      ],
      "name": "ownerOf",
      "outputs": [
        {
          "internalType": "address",
          "name": "",
          "type": "address"
        }
      ],
      "stateMutability": "view",
      "type": "function"
    },
    {
      "inputs": [],
      "name": "renounceOwnership",
      "outputs": [],
      "stateMutability": "nonpayable",
      "type": "function"
    },
    {
      "inputs": [
        {
          "internalType": "address",
          "name": "from",
          "type": "address"
        },
        {
          "internalType": "address",
          "name": "to",
          "type": "address"
        },
        {
          "internalType": "uint256",
          "name": "tokenId",
          "type": "uint256"
        }
      ],
      "name": "safeTransferFrom",
      "outputs": [],
      "stateMutability": "nonpayable",
      "type": "function"
    },
    {
      "inputs": [
        {
          "internalType": "address",
          "name": "from",
          "type": "address"
        },
        {
          "internalType": "address",
          "name": "to",
          "type": "address"
        },
        {
          "internalType": "uint256",
          "name": "tokenId",
          "type": "uint256"
        },
        {
          "internalType": "bytes",
          "name": "_data",
          "type": "bytes"
        }
      ],
      "name": "safeTransferFrom",
      "outputs": [],
      "stateMutability": "nonpayable",
      "type": "function"
    },
    {
      "inputs": [
        {
          "internalType": "address",
          "name": "operator",
          "type": "address"
        },
        {
          "internalType": "bool",
          "name": "approved",
          "type": "bool"
        }
      ],
      "name": "setApprovalForAll",
      "outputs": [],
      "stateMutability": "nonpayable",
      "type": "function"
    },
    {
      "inputs": [
        {
          "internalType": "bytes4",
          "name": "interfaceId",
          "type": "bytes4"
        }
      ],
      "name": "supportsInterface",
      "outputs": [
        {
          "internalType": "bool",
          "name": "",
          "type": "bool"
        }
      ],
      "stateMutability": "view",
      "type": "function"
    },
    {
      "inputs": [],
      "name": "symbol",
      "outputs": [
        {
          "internalType": "string",
          "name": "",
          "type": "string"
        }
      ],
      "stateMutability": "view",
      "type": "function"
    },
    {
      "inputs": [
        {
          "internalType": "uint256",
          "name": "tokenId",
          "type": "uint256"
        }
      ],
      "name": "tokenURI",
      "outputs": [
        {
          "internalType": "string",
          "name": "_RUri",
          "type": "string"
        }
      ],
      "stateMutability": "view",
      "type": "function"
    },
    {
      "inputs": [
        {
          "internalType": "address",
          "name": "from",
          "type": "address"
        },
        {
          "internalType": "address",
          "name": "to",
          "type": "address"
        },
        {
          "internalType": "uint256",
          "name": "tokenId",
          "type": "uint256"
        }
      ],
      "name": "transferFrom",
      "outputs": [],
      "stateMutability": "nonpayable",
      "type": "function"
    },
    {
      "inputs": [
        {
          "internalType": "address",
          "name": "newOwner",
          "type": "address"
        }
      ],
      "name": "transferOwnership",
      "outputs": [],
      "stateMutability": "nonpayable",
      "type": "function"
    }
  ],
  "bytecode": "0x60806040523480156200001157600080fd5b506040518060400160405280601581526020017f4e465454776974746150726f66696c65496d61676500000000000000000000008152506040518060400160405280600381526020017f4e54500000000000000000000000000000000000000000000000000000000000815250816000908051906020019062000096929190620001a6565b508060019080519060200190620000af929190620001a6565b505050620000d2620000c6620000d860201b60201c565b620000e060201b60201c565b620002bb565b600033905090565b6000600660009054906101000a900473ffffffffffffffffffffffffffffffffffffffff16905081600660006101000a81548173ffffffffffffffffffffffffffffffffffffffff021916908373ffffffffffffffffffffffffffffffffffffffff1602179055508173ffffffffffffffffffffffffffffffffffffffff168173ffffffffffffffffffffffffffffffffffffffff167f8be0079c531659141344cd1fd0a4f28419497f9722a3daafe3b4186f6b6457e060405160405180910390a35050565b828054620001b49062000256565b90600052602060002090601f016020900481019282620001d8576000855562000224565b82601f10620001f357805160ff191683800117855562000224565b8280016001018555821562000224579182015b828111156200022357825182559160200191906001019062000206565b5b50905062000233919062000237565b5090565b5b808211156200025257600081600090555060010162000238565b5090565b600060028204905060018216806200026f57607f821691505b602082108114156200028657620002856200028c565b5b50919050565b7f4e487b7100000000000000000000000000000000000000000000000000000000600052602260045260246000fd5b612db480620002cb6000396000f3fe608060405234801561001057600080fd5b50600436106101165760003560e01c8063715018a6116100a2578063b88d4fde11610071578063b88d4fde146102cd578063c87b56dd146102e9578063d0def52114610319578063e985e9c514610349578063f2fde38b1461037957610116565b8063715018a61461026b5780638da5cb5b1461027557806395d89b4114610293578063a22cb465146102b157610116565b806323b872dd116100e957806323b872dd146101b55780632a5c792a146101d157806342842e0e146101ef5780636352211e1461020b57806370a082311461023b57610116565b806301ffc9a71461011b57806306fdde031461014b578063081812fc14610169578063095ea7b314610199575b600080fd5b61013560048036038101906101309190611e0a565b610395565b6040516101429190612305565b60405180910390f35b610153610477565b6040516101609190612320565b60405180910390f35b610183600480360381019061017e9190611e5c565b610509565b604051610190919061227c565b60405180910390f35b6101b360048036038101906101ae9190611dce565b61058e565b005b6101cf60048036038101906101ca9190611c74565b6106a6565b005b6101d9610706565b6040516101e691906122e3565b60405180910390f35b61020960048036038101906102049190611c74565b6108c3565b005b61022560048036038101906102209190611e5c565b6108e3565b604051610232919061227c565b60405180910390f35b61025560048036038101906102509190611c0f565b610995565b6040516102629190612542565b60405180910390f35b610273610a4d565b005b61027d610ad5565b60405161028a919061227c565b60405180910390f35b61029b610aff565b6040516102a89190612320565b60405180910390f35b6102cb60048036038101906102c69190611d3e565b610b91565b005b6102e760048036038101906102e29190611cc3565b610ba7565b005b61030360048036038101906102fe9190611e5c565b610c09565b6040516103109190612320565b60405180910390f35b610333600480360381019061032e9190611d7a565b610cf6565b6040516103409190612542565b60405180910390f35b610363600480360381019061035e9190611c38565b610d2d565b6040516103709190612305565b60405180910390f35b610393600480360381019061038e9190611c0f565b610dc1565b005b60007f80ac58cd000000000000000000000000000000000000000000000000000000007bffffffffffffffffffffffffffffffffffffffffffffffffffffffff1916827bffffffffffffffffffffffffffffffffffffffffffffffffffffffff1916148061046057507f5b5e139f000000000000000000000000000000000000000000000000000000007bffffffffffffffffffffffffffffffffffffffffffffffffffffffff1916827bffffffffffffffffffffffffffffffffffffffffffffffffffffffff1916145b80610470575061046f82610eb9565b5b9050919050565b606060008054610486906127a6565b80601f01602080910402602001604051908101604052809291908181526020018280546104b2906127a6565b80156104ff5780601f106104d4576101008083540402835291602001916104ff565b820191906000526020600020905b8154815290600101906020018083116104e257829003601f168201915b5050505050905090565b600061051482610f23565b610553576040517f08c379a000000000000000000000000000000000000000000000000000000000815260040161054a906124a2565b60405180910390fd5b6004600083815260200190815260200160002060009054906101000a900473ffffffffffffffffffffffffffffffffffffffff169050919050565b6000610599826108e3565b90508073ffffffffffffffffffffffffffffffffffffffff168373ffffffffffffffffffffffffffffffffffffffff16141561060a576040517f08c379a0000000000000000000000000000000000000000000000000000000008152600401610601906124e2565b60405180910390fd5b8073ffffffffffffffffffffffffffffffffffffffff16610629610f8f565b73ffffffffffffffffffffffffffffffffffffffff161480610658575061065781610652610f8f565b610d2d565b5b610697576040517f08c379a000000000000000000000000000000000000000000000000000000000815260040161068e90612422565b60405180910390fd5b6106a18383610f97565b505050565b6106b76106b1610f8f565b82611050565b6106f6576040517f08c379a00000000000000000000000000000000000000000000000000000000081526004016106ed90612502565b60405180910390fd5b61070183838361112e565b505050565b606060006107146007611395565b905060008167ffffffffffffffff811115610758577f4e487b7100000000000000000000000000000000000000000000000000000000600052604160045260246000fd5b60405190808252806020026020018201604052801561079157816020015b61077e611a12565b8152602001906001900390816107765790505b50905060005b8281116108ba5760405180606001604052808281526020016008600084815260200190815260200160002080546107cd906127a6565b80601f01602080910402602001604051908101604052809291908181526020018280546107f9906127a6565b80156108465780601f1061081b57610100808354040283529160200191610846565b820191906000526020600020905b81548152906001019060200180831161082957829003601f168201915b505050505081526020016040518060200160405280600081525081525082828151811061089c577f4e487b7100000000000000000000000000000000000000000000000000000000600052603260045260246000fd5b602002602001018190525080806108b290612809565b915050610797565b50809250505090565b6108de83838360405180602001604052806000815250610ba7565b505050565b6000806002600084815260200190815260200160002060009054906101000a900473ffffffffffffffffffffffffffffffffffffffff169050600073ffffffffffffffffffffffffffffffffffffffff168173ffffffffffffffffffffffffffffffffffffffff16141561098c576040517f08c379a000000000000000000000000000000000000000000000000000000000815260040161098390612462565b60405180910390fd5b80915050919050565b60008073ffffffffffffffffffffffffffffffffffffffff168273ffffffffffffffffffffffffffffffffffffffff161415610a06576040517f08c379a00000000000000000000000000000000000000000000000000000000081526004016109fd90612442565b60405180910390fd5b600360008373ffffffffffffffffffffffffffffffffffffffff1673ffffffffffffffffffffffffffffffffffffffff168152602001908152602001600020549050919050565b610a55610f8f565b73ffffffffffffffffffffffffffffffffffffffff16610a73610ad5565b73ffffffffffffffffffffffffffffffffffffffff1614610ac9576040517f08c379a0000000000000000000000000000000000000000000000000000000008152600401610ac0906124c2565b60405180910390fd5b610ad360006113a3565b565b6000600660009054906101000a900473ffffffffffffffffffffffffffffffffffffffff16905090565b606060018054610b0e906127a6565b80601f0160208091040260200160405190810160405280929190818152602001828054610b3a906127a6565b8015610b875780601f10610b5c57610100808354040283529160200191610b87565b820191906000526020600020905b815481529060010190602001808311610b6a57829003601f168201915b5050505050905090565b610ba3610b9c610f8f565b8383611469565b5050565b610bb8610bb2610f8f565b83611050565b610bf7576040517f08c379a0000000000000000000000000000000000000000000000000000000008152600401610bee90612502565b60405180910390fd5b610c03848484846115d6565b50505050565b6060610c1482610f23565b610c53576040517f08c379a0000000000000000000000000000000000000000000000000000000008152600401610c4a90612522565b60405180910390fd5b600860008381526020019081526020016000208054610c71906127a6565b80601f0160208091040260200160405190810160405280929190818152602001828054610c9d906127a6565b8015610cea5780601f10610cbf57610100808354040283529160200191610cea565b820191906000526020600020905b815481529060010190602001808311610ccd57829003601f168201915b50505050509050919050565b600080610d036007611395565b9050610d0f8482611632565b610d19818461180c565b610d236007611838565b8091505092915050565b6000600560008473ffffffffffffffffffffffffffffffffffffffff1673ffffffffffffffffffffffffffffffffffffffff16815260200190815260200160002060008373ffffffffffffffffffffffffffffffffffffffff1673ffffffffffffffffffffffffffffffffffffffff16815260200190815260200160002060009054906101000a900460ff16905092915050565b610dc9610f8f565b73ffffffffffffffffffffffffffffffffffffffff16610de7610ad5565b73ffffffffffffffffffffffffffffffffffffffff1614610e3d576040517f08c379a0000000000000000000000000000000000000000000000000000000008152600401610e34906124c2565b60405180910390fd5b600073ffffffffffffffffffffffffffffffffffffffff168173ffffffffffffffffffffffffffffffffffffffff161415610ead576040517f08c379a0000000000000000000000000000000000000000000000000000000008152600401610ea490612362565b60405180910390fd5b610eb6816113a3565b50565b60007f01ffc9a7000000000000000000000000000000000000000000000000000000007bffffffffffffffffffffffffffffffffffffffffffffffffffffffff1916827bffffffffffffffffffffffffffffffffffffffffffffffffffffffff1916149050919050565b60008073ffffffffffffffffffffffffffffffffffffffff166002600084815260200190815260200160002060009054906101000a900473ffffffffffffffffffffffffffffffffffffffff1673ffffffffffffffffffffffffffffffffffffffff1614159050919050565b600033905090565b816004600083815260200190815260200160002060006101000a81548173ffffffffffffffffffffffffffffffffffffffff021916908373ffffffffffffffffffffffffffffffffffffffff160217905550808273ffffffffffffffffffffffffffffffffffffffff1661100a836108e3565b73ffffffffffffffffffffffffffffffffffffffff167f8c5be1e5ebec7d5bd14f71427d1e84f3dd0314c0f7b2291e5b200ac8c7c3b92560405160405180910390a45050565b600061105b82610f23565b61109a576040517f08c379a000000000000000000000000000000000000000000000000000000000815260040161109190612402565b60405180910390fd5b60006110a5836108e3565b90508073ffffffffffffffffffffffffffffffffffffffff168473ffffffffffffffffffffffffffffffffffffffff16148061111457508373ffffffffffffffffffffffffffffffffffffffff166110fc84610509565b73ffffffffffffffffffffffffffffffffffffffff16145b8061112557506111248185610d2d565b5b91505092915050565b8273ffffffffffffffffffffffffffffffffffffffff1661114e826108e3565b73ffffffffffffffffffffffffffffffffffffffff16146111a4576040517f08c379a000000000000000000000000000000000000000000000000000000000815260040161119b90612382565b60405180910390fd5b600073ffffffffffffffffffffffffffffffffffffffff168273ffffffffffffffffffffffffffffffffffffffff161415611214576040517f08c379a000000000000000000000000000000000000000000000000000000000815260040161120b906123c2565b60405180910390fd5b61121f83838361184e565b61122a600082610f97565b6001600360008573ffffffffffffffffffffffffffffffffffffffff1673ffffffffffffffffffffffffffffffffffffffff168152602001908152602001600020600082825461127a91906126bc565b925050819055506001600360008473ffffffffffffffffffffffffffffffffffffffff1673ffffffffffffffffffffffffffffffffffffffff16815260200190815260200160002060008282546112d19190612666565b92505081905550816002600083815260200190815260200160002060006101000a81548173ffffffffffffffffffffffffffffffffffffffff021916908373ffffffffffffffffffffffffffffffffffffffff160217905550808273ffffffffffffffffffffffffffffffffffffffff168473ffffffffffffffffffffffffffffffffffffffff167fddf252ad1be2c89b69c2b068fc378daa952ba7f163c4a11628f55a4df523b3ef60405160405180910390a4611390838383611853565b505050565b600081600001549050919050565b6000600660009054906101000a900473ffffffffffffffffffffffffffffffffffffffff16905081600660006101000a81548173ffffffffffffffffffffffffffffffffffffffff021916908373ffffffffffffffffffffffffffffffffffffffff1602179055508173ffffffffffffffffffffffffffffffffffffffff168173ffffffffffffffffffffffffffffffffffffffff167f8be0079c531659141344cd1fd0a4f28419497f9722a3daafe3b4186f6b6457e060405160405180910390a35050565b8173ffffffffffffffffffffffffffffffffffffffff168373ffffffffffffffffffffffffffffffffffffffff1614156114d8576040517f08c379a00000000000000000000000000000000000000000000000000000000081526004016114cf906123e2565b60405180910390fd5b80600560008573ffffffffffffffffffffffffffffffffffffffff1673ffffffffffffffffffffffffffffffffffffffff16815260200190815260200160002060008473ffffffffffffffffffffffffffffffffffffffff1673ffffffffffffffffffffffffffffffffffffffff16815260200190815260200160002060006101000a81548160ff0219169083151502179055508173ffffffffffffffffffffffffffffffffffffffff168373ffffffffffffffffffffffffffffffffffffffff167f17307eab39ab6107e8899845ad3d59bd9653f200f220920489ca2b5937696c31836040516115c99190612305565b60405180910390a3505050565b6115e184848461112e565b6115ed84848484611858565b61162c576040517f08c379a000000000000000000000000000000000000000000000000000000000815260040161162390612342565b60405180910390fd5b50505050565b600073ffffffffffffffffffffffffffffffffffffffff168273ffffffffffffffffffffffffffffffffffffffff1614156116a2576040517f08c379a000000000000000000000000000000000000000000000000000000000815260040161169990612482565b60405180910390fd5b6116ab81610f23565b156116eb576040517f08c379a00000000000000000000000000000000000000000000000000000000081526004016116e2906123a2565b60405180910390fd5b6116f76000838361184e565b6001600360008473ffffffffffffffffffffffffffffffffffffffff1673ffffffffffffffffffffffffffffffffffffffff16815260200190815260200160002060008282546117479190612666565b92505081905550816002600083815260200190815260200160002060006101000a81548173ffffffffffffffffffffffffffffffffffffffff021916908373ffffffffffffffffffffffffffffffffffffffff160217905550808273ffffffffffffffffffffffffffffffffffffffff16600073ffffffffffffffffffffffffffffffffffffffff167fddf252ad1be2c89b69c2b068fc378daa952ba7f163c4a11628f55a4df523b3ef60405160405180910390a461180860008383611853565b5050565b80600860008481526020019081526020016000209080519060200190611833929190611a33565b505050565b6001816000016000828254019250508190555050565b505050565b505050565b60006118798473ffffffffffffffffffffffffffffffffffffffff166119ef565b156119e2578373ffffffffffffffffffffffffffffffffffffffff1663150b7a026118a2610f8f565b8786866040518563ffffffff1660e01b81526004016118c49493929190612297565b602060405180830381600087803b1580156118de57600080fd5b505af192505050801561190f57506040513d601f19601f8201168201806040525081019061190c9190611e33565b60015b611992573d806000811461193f576040519150601f19603f3d011682016040523d82523d6000602084013e611944565b606091505b5060008151141561198a576040517f08c379a000000000000000000000000000000000000000000000000000000000815260040161198190612342565b60405180910390fd5b805181602001fd5b63150b7a0260e01b7bffffffffffffffffffffffffffffffffffffffffffffffffffffffff1916817bffffffffffffffffffffffffffffffffffffffffffffffffffffffff1916149150506119e7565b600190505b949350505050565b6000808273ffffffffffffffffffffffffffffffffffffffff163b119050919050565b60405180606001604052806000815260200160608152602001606081525090565b828054611a3f906127a6565b90600052602060002090601f016020900481019282611a615760008555611aa8565b82601f10611a7a57805160ff1916838001178555611aa8565b82800160010185558215611aa8579182015b82811115611aa7578251825591602001919060010190611a8c565b5b509050611ab59190611ab9565b5090565b5b80821115611ad2576000816000905550600101611aba565b5090565b6000611ae9611ae484612582565b61255d565b905082815260208101848484011115611b0157600080fd5b611b0c848285612764565b509392505050565b6000611b27611b22846125b3565b61255d565b905082815260208101848484011115611b3f57600080fd5b611b4a848285612764565b509392505050565b600081359050611b6181612d22565b92915050565b600081359050611b7681612d39565b92915050565b600081359050611b8b81612d50565b92915050565b600081519050611ba081612d50565b92915050565b600082601f830112611bb757600080fd5b8135611bc7848260208601611ad6565b91505092915050565b600082601f830112611be157600080fd5b8135611bf1848260208601611b14565b91505092915050565b600081359050611c0981612d67565b92915050565b600060208284031215611c2157600080fd5b6000611c2f84828501611b52565b91505092915050565b60008060408385031215611c4b57600080fd5b6000611c5985828601611b52565b9250506020611c6a85828601611b52565b9150509250929050565b600080600060608486031215611c8957600080fd5b6000611c9786828701611b52565b9350506020611ca886828701611b52565b9250506040611cb986828701611bfa565b9150509250925092565b60008060008060808587031215611cd957600080fd5b6000611ce787828801611b52565b9450506020611cf887828801611b52565b9350506040611d0987828801611bfa565b925050606085013567ffffffffffffffff811115611d2657600080fd5b611d3287828801611ba6565b91505092959194509250565b60008060408385031215611d5157600080fd5b6000611d5f85828601611b52565b9250506020611d7085828601611b67565b9150509250929050565b60008060408385031215611d8d57600080fd5b6000611d9b85828601611b52565b925050602083013567ffffffffffffffff811115611db857600080fd5b611dc485828601611bd0565b9150509250929050565b60008060408385031215611de157600080fd5b6000611def85828601611b52565b9250506020611e0085828601611bfa565b9150509250929050565b600060208284031215611e1c57600080fd5b6000611e2a84828501611b7c565b91505092915050565b600060208284031215611e4557600080fd5b6000611e5384828501611b91565b91505092915050565b600060208284031215611e6e57600080fd5b6000611e7c84828501611bfa565b91505092915050565b6000611e918383612207565b905092915050565b611ea2816126f0565b82525050565b6000611eb3826125f4565b611ebd8185612622565b935083602082028501611ecf856125e4565b8060005b85811015611f0b5784840389528151611eec8582611e85565b9450611ef783612615565b925060208a01995050600181019050611ed3565b50829750879550505050505092915050565b611f2681612702565b82525050565b6000611f37826125ff565b611f418185612633565b9350611f51818560208601612773565b611f5a816128df565b840191505092915050565b6000611f708261260a565b611f7a8185612644565b9350611f8a818560208601612773565b611f93816128df565b840191505092915050565b6000611fa98261260a565b611fb38185612655565b9350611fc3818560208601612773565b611fcc816128df565b840191505092915050565b6000611fe4603283612655565b9150611fef826128f0565b604082019050919050565b6000612007602683612655565b91506120128261293f565b604082019050919050565b600061202a602583612655565b91506120358261298e565b604082019050919050565b600061204d601c83612655565b9150612058826129dd565b602082019050919050565b6000612070602483612655565b915061207b82612a06565b604082019050919050565b6000612093601983612655565b915061209e82612a55565b602082019050919050565b60006120b6602c83612655565b91506120c182612a7e565b604082019050919050565b60006120d9603883612655565b91506120e482612acd565b604082019050919050565b60006120fc602a83612655565b915061210782612b1c565b604082019050919050565b600061211f602983612655565b915061212a82612b6b565b604082019050919050565b6000612142602083612655565b915061214d82612bba565b602082019050919050565b6000612165602c83612655565b915061217082612be3565b604082019050919050565b6000612188602083612655565b915061219382612c32565b602082019050919050565b60006121ab602183612655565b91506121b682612c5b565b604082019050919050565b60006121ce603183612655565b91506121d982612caa565b604082019050919050565b60006121f1601c83612655565b91506121fc82612cf9565b602082019050919050565b600060608301600083015161221f600086018261225e565b50602083015184820360208601526122378282611f65565b915050604083015184820360408601526122518282611f65565b9150508091505092915050565b6122678161275a565b82525050565b6122768161275a565b82525050565b60006020820190506122916000830184611e99565b92915050565b60006080820190506122ac6000830187611e99565b6122b96020830186611e99565b6122c6604083018561226d565b81810360608301526122d88184611f2c565b905095945050505050565b600060208201905081810360008301526122fd8184611ea8565b905092915050565b600060208201905061231a6000830184611f1d565b92915050565b6000602082019050818103600083015261233a8184611f9e565b905092915050565b6000602082019050818103600083015261235b81611fd7565b9050919050565b6000602082019050818103600083015261237b81611ffa565b9050919050565b6000602082019050818103600083015261239b8161201d565b9050919050565b600060208201905081810360008301526123bb81612040565b9050919050565b600060208201905081810360008301526123db81612063565b9050919050565b600060208201905081810360008301526123fb81612086565b9050919050565b6000602082019050818103600083015261241b816120a9565b9050919050565b6000602082019050818103600083015261243b816120cc565b9050919050565b6000602082019050818103600083015261245b816120ef565b9050919050565b6000602082019050818103600083015261247b81612112565b9050919050565b6000602082019050818103600083015261249b81612135565b9050919050565b600060208201905081810360008301526124bb81612158565b9050919050565b600060208201905081810360008301526124db8161217b565b9050919050565b600060208201905081810360008301526124fb8161219e565b9050919050565b6000602082019050818103600083015261251b816121c1565b9050919050565b6000602082019050818103600083015261253b816121e4565b9050919050565b6000602082019050612557600083018461226d565b92915050565b6000612567612578565b905061257382826127d8565b919050565b6000604051905090565b600067ffffffffffffffff82111561259d5761259c6128b0565b5b6125a6826128df565b9050602081019050919050565b600067ffffffffffffffff8211156125ce576125cd6128b0565b5b6125d7826128df565b9050602081019050919050565b6000819050602082019050919050565b600081519050919050565b600081519050919050565b600081519050919050565b6000602082019050919050565b600082825260208201905092915050565b600082825260208201905092915050565b600082825260208201905092915050565b600082825260208201905092915050565b60006126718261275a565b915061267c8361275a565b9250827fffffffffffffffffffffffffffffffffffffffffffffffffffffffffffffffff038211156126b1576126b0612852565b5b828201905092915050565b60006126c78261275a565b91506126d28361275a565b9250828210156126e5576126e4612852565b5b828203905092915050565b60006126fb8261273a565b9050919050565b60008115159050919050565b60007fffffffff0000000000000000000000000000000000000000000000000000000082169050919050565b600073ffffffffffffffffffffffffffffffffffffffff82169050919050565b6000819050919050565b82818337600083830152505050565b60005b83811015612791578082015181840152602081019050612776565b838111156127a0576000848401525b50505050565b600060028204905060018216806127be57607f821691505b602082108114156127d2576127d1612881565b5b50919050565b6127e1826128df565b810181811067ffffffffffffffff82111715612800576127ff6128b0565b5b80604052505050565b60006128148261275a565b91507fffffffffffffffffffffffffffffffffffffffffffffffffffffffffffffffff82141561284757612846612852565b5b600182019050919050565b7f4e487b7100000000000000000000000000000000000000000000000000000000600052601160045260246000fd5b7f4e487b7100000000000000000000000000000000000000000000000000000000600052602260045260246000fd5b7f4e487b7100000000000000000000000000000000000000000000000000000000600052604160045260246000fd5b6000601f19601f8301169050919050565b7f4552433732313a207472616e7366657220746f206e6f6e20455243373231526560008201527f63656976657220696d706c656d656e7465720000000000000000000000000000602082015250565b7f4f776e61626c653a206e6577206f776e657220697320746865207a65726f206160008201527f6464726573730000000000000000000000000000000000000000000000000000602082015250565b7f4552433732313a207472616e736665722066726f6d20696e636f72726563742060008201527f6f776e6572000000000000000000000000000000000000000000000000000000602082015250565b7f4552433732313a20746f6b656e20616c7265616479206d696e74656400000000600082015250565b7f4552433732313a207472616e7366657220746f20746865207a65726f2061646460008201527f7265737300000000000000000000000000000000000000000000000000000000602082015250565b7f4552433732313a20617070726f766520746f2063616c6c657200000000000000600082015250565b7f4552433732313a206f70657261746f7220717565727920666f72206e6f6e657860008201527f697374656e7420746f6b656e0000000000000000000000000000000000000000602082015250565b7f4552433732313a20617070726f76652063616c6c6572206973206e6f74206f7760008201527f6e6572206e6f7220617070726f76656420666f7220616c6c0000000000000000602082015250565b7f4552433732313a2062616c616e636520717565727920666f7220746865207a6560008201527f726f206164647265737300000000000000000000000000000000000000000000602082015250565b7f4552433732313a206f776e657220717565727920666f72206e6f6e657869737460008201527f656e7420746f6b656e0000000000000000000000000000000000000000000000602082015250565b7f4552433732313a206d696e7420746f20746865207a65726f2061646472657373600082015250565b7f4552433732313a20617070726f76656420717565727920666f72206e6f6e657860008201527f697374656e7420746f6b656e0000000000000000000000000000000000000000602082015250565b7f4f776e61626c653a2063616c6c6572206973206e6f7420746865206f776e6572600082015250565b7f4552433732313a20617070726f76616c20746f2063757272656e74206f776e6560008201527f7200000000000000000000000000000000000000000000000000000000000000602082015250565b7f4552433732313a207472616e736665722063616c6c6572206973206e6f74206f60008201527f776e6572206e6f7220617070726f766564000000000000000000000000000000602082015250565b7f54686520746f6b656e2049442020646f6573206e6f7420657869747300000000600082015250565b612d2b816126f0565b8114612d3657600080fd5b50565b612d4281612702565b8114612d4d57600080fd5b50565b612d598161270e565b8114612d6457600080fd5b50565b612d708161275a565b8114612d7b57600080fd5b5056fea26469706673582212200cbe1a48858d09b03d95aa33caad7bd3e700fb5cc775f35de147d31f266ecdeb64736f6c63430008040033",
  "linkReferences": {},
  "deployedLinkReferences": {}
}